{
    "_format": "hh-sol-artifact-1",
    "contractName": "Marketplace",
    "sourceName": "src/backend/contracts/Marketplace.sol",
    "abi": [
        {
            "inputs": [
                {
                    "internalType": "uint256",
                    "name": "_feePercent",
                    "type": "uint256"
                }
            ],
            "stateMutability": "nonpayable",
            "type": "constructor"
        },
        {
            "inputs": [],
            "name": "Marketplace__FeePercentTooHigh",
            "type": "error"
        },
        {
            "inputs": [],
            "name": "Marketplace__ItemAlreadySold",
            "type": "error"
        },
        {
            "inputs": [],
            "name": "Marketplace__NotEnoughEth",
            "type": "error"
        },
        {
            "inputs": [],
            "name": "Marketplace__PriceMustBeMoreThanZero",
            "type": "error"
        },
        {
            "inputs": [],
            "name": "Marketplace__TokenDoesNotExist",
            "type": "error"
        },
        {
            "anonymous": false,
            "inputs": [
                {
                    "indexed": false,
                    "internalType": "uint256",
                    "name": "itemId",
                    "type": "uint256"
                },
                {
                    "indexed": true,
                    "internalType": "contract IERC721",
                    "name": "nft",
                    "type": "address"
                },
                {
                    "indexed": false,
                    "internalType": "uint256",
                    "name": "tokenId",
                    "type": "uint256"
                },
                {
                    "indexed": false,
                    "internalType": "uint256",
                    "name": "price",
                    "type": "uint256"
                },
                {
                    "indexed": true,
                    "internalType": "address",
                    "name": "seller",
                    "type": "address"
                }
            ],
            "name": "Listing",
            "type": "event"
        },
        {
            "anonymous": false,
            "inputs": [
                {
                    "indexed": true,
                    "internalType": "address",
                    "name": "previousOwner",
                    "type": "address"
                },
                {
                    "indexed": true,
                    "internalType": "address",
                    "name": "newOwner",
                    "type": "address"
                }
            ],
            "name": "OwnershipTransferred",
            "type": "event"
        },
        {
            "anonymous": false,
            "inputs": [
                {
                    "indexed": false,
                    "internalType": "uint256",
                    "name": "itemId",
                    "type": "uint256"
                },
                {
                    "indexed": true,
                    "internalType": "contract IERC721",
                    "name": "nft",
                    "type": "address"
                },
                {
                    "indexed": false,
                    "internalType": "uint256",
                    "name": "tokenId",
                    "type": "uint256"
                },
                {
                    "indexed": false,
                    "internalType": "uint256",
                    "name": "price",
                    "type": "uint256"
                },
                {
                    "indexed": true,
                    "internalType": "address",
                    "name": "seller",
                    "type": "address"
                },
                {
                    "indexed": true,
                    "internalType": "address",
                    "name": "buyer",
                    "type": "address"
                }
            ],
            "name": "Purchased",
            "type": "event"
        },
        {
            "inputs": [
                {
                    "internalType": "uint256",
                    "name": "_newFee",
                    "type": "uint256"
                }
            ],
            "name": "feeChange",
            "outputs": [
                {
                    "internalType": "uint256",
                    "name": "",
                    "type": "uint256"
                }
            ],
            "stateMutability": "nonpayable",
            "type": "function"
        },
        {
            "inputs": [],
            "name": "getFeeAccount",
            "outputs": [
                {
                    "internalType": "address",
                    "name": "",
                    "type": "address"
                }
            ],
            "stateMutability": "view",
            "type": "function"
        },
        {
            "inputs": [],
            "name": "getFeeAccountBalance",
            "outputs": [
                {
                    "internalType": "uint256",
                    "name": "",
                    "type": "uint256"
                }
            ],
            "stateMutability": "view",
            "type": "function"
        },
        {
            "inputs": [],
            "name": "getFeePercent",
            "outputs": [
                {
                    "internalType": "uint256",
                    "name": "",
                    "type": "uint256"
                }
            ],
            "stateMutability": "view",
            "type": "function"
        },
        {
            "inputs": [],
            "name": "getItemCount",
            "outputs": [
                {
                    "internalType": "uint256",
                    "name": "",
                    "type": "uint256"
                }
            ],
            "stateMutability": "view",
            "type": "function"
        },
        {
            "inputs": [
                {
                    "internalType": "uint256",
                    "name": "_itemId",
                    "type": "uint256"
                }
            ],
            "name": "getItemsMap",
            "outputs": [
                {
                    "components": [
                        {
                            "internalType": "uint256",
                            "name": "itemId",
                            "type": "uint256"
                        },
                        {
                            "internalType": "contract IERC721",
                            "name": "nft",
                            "type": "address"
                        },
                        {
                            "internalType": "uint256",
                            "name": "tokenId",
                            "type": "uint256"
                        },
                        {
                            "internalType": "uint256",
                            "name": "price",
                            "type": "uint256"
                        },
                        {
                            "internalType": "address payable",
                            "name": "seller",
                            "type": "address"
                        },
                        {
                            "internalType": "bool",
                            "name": "sold",
                            "type": "bool"
                        }
                    ],
                    "internalType": "struct Marketplace.Item",
                    "name": "",
                    "type": "tuple"
                }
            ],
            "stateMutability": "view",
            "type": "function"
        },
        {
            "inputs": [
                {
                    "internalType": "uint256",
                    "name": "_itemId",
                    "type": "uint256"
                }
            ],
            "name": "getTotalPrice",
            "outputs": [
                {
                    "internalType": "uint256",
                    "name": "",
                    "type": "uint256"
                }
            ],
            "stateMutability": "view",
            "type": "function"
        },
        {
            "inputs": [],
            "name": "i_feeAccount",
            "outputs": [
                {
                    "internalType": "address payable",
                    "name": "",
                    "type": "address"
                }
            ],
            "stateMutability": "view",
            "type": "function"
        },
        {
            "inputs": [
                {
                    "internalType": "uint256",
                    "name": "",
                    "type": "uint256"
                }
            ],
            "name": "itemsMap",
            "outputs": [
                {
                    "internalType": "uint256",
                    "name": "itemId",
                    "type": "uint256"
                },
                {
                    "internalType": "contract IERC721",
                    "name": "nft",
                    "type": "address"
                },
                {
                    "internalType": "uint256",
                    "name": "tokenId",
                    "type": "uint256"
                },
                {
                    "internalType": "uint256",
                    "name": "price",
                    "type": "uint256"
                },
                {
                    "internalType": "address payable",
                    "name": "seller",
                    "type": "address"
                },
                {
                    "internalType": "bool",
                    "name": "sold",
                    "type": "bool"
                }
            ],
            "stateMutability": "view",
            "type": "function"
        },
        {
            "inputs": [
                {
                    "internalType": "contract IERC721",
                    "name": "_nftContract",
                    "type": "address"
                },
                {
                    "internalType": "uint256",
                    "name": "_tokenId",
                    "type": "uint256"
                },
                {
                    "internalType": "uint256",
                    "name": "_price",
                    "type": "uint256"
                }
            ],
            "name": "listNFT",
            "outputs": [],
            "stateMutability": "nonpayable",
            "type": "function"
        },
        {
            "inputs": [
                {
                    "internalType": "address",
                    "name": "",
                    "type": "address"
                },
                {
                    "internalType": "address",
                    "name": "",
                    "type": "address"
                },
                {
                    "internalType": "uint256",
                    "name": "",
                    "type": "uint256"
                },
                {
                    "internalType": "bytes",
                    "name": "",
                    "type": "bytes"
                }
            ],
            "name": "onERC721Received",
            "outputs": [
                {
                    "internalType": "bytes4",
                    "name": "",
                    "type": "bytes4"
                }
            ],
            "stateMutability": "pure",
            "type": "function"
        },
        {
            "inputs": [],
            "name": "owner",
            "outputs": [
                {
                    "internalType": "address",
                    "name": "",
                    "type": "address"
                }
            ],
            "stateMutability": "view",
            "type": "function"
        },
        {
            "inputs": [
                {
                    "internalType": "uint256",
                    "name": "_itemId",
                    "type": "uint256"
                }
            ],
            "name": "purchaseNFT",
            "outputs": [],
            "stateMutability": "payable",
            "type": "function"
        },
        {
            "inputs": [],
            "name": "renounceOwnership",
            "outputs": [],
            "stateMutability": "nonpayable",
            "type": "function"
        },
        {
            "inputs": [],
            "name": "s_feePercent",
            "outputs": [
                {
                    "internalType": "uint256",
                    "name": "",
                    "type": "uint256"
                }
            ],
            "stateMutability": "view",
            "type": "function"
        },
        {
            "inputs": [],
            "name": "s_itemCount",
            "outputs": [
                {
                    "internalType": "uint256",
                    "name": "",
                    "type": "uint256"
                }
            ],
            "stateMutability": "view",
            "type": "function"
        },
        {
            "inputs": [
                {
                    "internalType": "address",
                    "name": "newOwner",
                    "type": "address"
                }
            ],
            "name": "transferOwnership",
            "outputs": [],
            "stateMutability": "nonpayable",
            "type": "function"
        }
    ],
    "bytecode": "0x60a06040523480156200001157600080fd5b5060405162001ac338038062001ac38339818101604052810190620000379190620001c5565b60016000819055506200005f62000053620000e060201b60201c565b620000e860201b60201c565b600a8111156200009b576040517f522023c800000000000000000000000000000000000000000000000000000000815260040160405180910390fd5b3373ffffffffffffffffffffffffffffffffffffffff1660808173ffffffffffffffffffffffffffffffffffffffff1660601b81525050806002819055505062000215565b600033905090565b6000600160009054906101000a900473ffffffffffffffffffffffffffffffffffffffff16905081600160006101000a81548173ffffffffffffffffffffffffffffffffffffffff021916908373ffffffffffffffffffffffffffffffffffffffff1602179055508173ffffffffffffffffffffffffffffffffffffffff168173ffffffffffffffffffffffffffffffffffffffff167f8be0079c531659141344cd1fd0a4f28419497f9722a3daafe3b4186f6b6457e060405160405180910390a35050565b600081519050620001bf81620001fb565b92915050565b600060208284031215620001d857600080fd5b6000620001e884828501620001ae565b91505092915050565b6000819050919050565b6200020681620001f1565b81146200021257600080fd5b50565b60805160601c61187a620002496000396000818161052c015281816106ba0152818161098a0152610da5015261187a6000f3fe6080604052600436106100fe5760003560e01c8063715018a611610095578063bace4b6711610064578063bace4b6714610318578063be74264d1461035a578063ca7dd37514610385578063cb8ea281146103c2578063f2fde38b146103ed576100fe565b8063715018a6146102825780637749cf23146102995780638da5cb5b146102c4578063ad05f1b4146102ef576100fe565b806326c7edf9116100d157806326c7edf9146101c4578063456b7980146101ef5780634614be9f1461022c5780634c3fee9a14610257576100fe565b8063025f7fb41461010357806302a4efc214610140578063150b7a021461016b578063150bde03146101a8575b600080fd5b34801561010f57600080fd5b5061012a6004803603810190610125919061117c565b610416565b6040516101379190611407565b60405180910390f35b34801561014c57600080fd5b50610155610528565b6040516101629190611422565b60405180910390f35b34801561017757600080fd5b50610192600480360381019061018d91906110ad565b610567565b60405161019f919061138c565b60405180910390f35b6101c260048036038101906101bd919061117c565b61057c565b005b3480156101d057600080fd5b506101d961092e565b6040516101e69190611422565b60405180910390f35b3480156101fb57600080fd5b506102166004803603810190610211919061117c565b610934565b6040516102239190611422565b60405180910390f35b34801561023857600080fd5b50610241610986565b60405161024e919061131f565b60405180910390f35b34801561026357600080fd5b5061026c6109ae565b6040516102799190611422565b60405180910390f35b34801561028e57600080fd5b506102976109b4565b005b3480156102a557600080fd5b506102ae6109c8565b6040516102bb9190611422565b60405180910390f35b3480156102d057600080fd5b506102d96109d2565b6040516102e6919061131f565b60405180910390f35b3480156102fb57600080fd5b506103166004803603810190610311919061112d565b6109fc565b005b34801561032457600080fd5b5061033f600480360381019061033a919061117c565b610cc6565b6040516103519695949392919061143d565b60405180910390f35b34801561036657600080fd5b5061036f610d4f565b60405161037c9190611422565b60405180910390f35b34801561039157600080fd5b506103ac60048036038101906103a7919061117c565b610d59565b6040516103b99190611422565b60405180910390f35b3480156103ce57600080fd5b506103d7610da3565b6040516103e4919061133a565b60405180910390f35b3480156103f957600080fd5b50610414600480360381019061040f9190611084565b610dc7565b005b61041e610f97565b600460008381526020019081526020016000206040518060c0016040529081600082015481526020016001820160009054906101000a900473ffffffffffffffffffffffffffffffffffffffff1673ffffffffffffffffffffffffffffffffffffffff1673ffffffffffffffffffffffffffffffffffffffff16815260200160028201548152602001600382015481526020016004820160009054906101000a900473ffffffffffffffffffffffffffffffffffffffff1673ffffffffffffffffffffffffffffffffffffffff1673ffffffffffffffffffffffffffffffffffffffff1681526020016004820160149054906101000a900460ff1615151515815250509050919050565b60007f000000000000000000000000000000000000000000000000000000000000000073ffffffffffffffffffffffffffffffffffffffff1631905090565b600063150b7a0260e01b905095945050505050565b600260005414156105c2576040517f08c379a00000000000000000000000000000000000000000000000000000000081526004016105b9906113e7565b60405180910390fd5b600260008190555060006105d582610d59565b9050600060046000848152602001908152602001600020905060008314806105fe575060035483115b15610635576040517f3471545a00000000000000000000000000000000000000000000000000000000815260040160405180910390fd5b8134101561066f576040517fa70074e600000000000000000000000000000000000000000000000000000000815260040160405180910390fd5b8060040160149054906101000a900460ff16156106b8576040517f859e8b4c00000000000000000000000000000000000000000000000000000000815260040160405180910390fd5b7f000000000000000000000000000000000000000000000000000000000000000073ffffffffffffffffffffffffffffffffffffffff166108fc82600301548461070291906115c7565b9081150290604051600060405180830381858888f1935050505015801561072d573d6000803e3d6000fd5b508060040160009054906101000a900473ffffffffffffffffffffffffffffffffffffffff1673ffffffffffffffffffffffffffffffffffffffff166108fc82600301549081150290604051600060405180830381858888f1935050505015801561079c573d6000803e3d6000fd5b5060018160040160146101000a81548160ff0219169083151502179055508060010160009054906101000a900473ffffffffffffffffffffffffffffffffffffffff1673ffffffffffffffffffffffffffffffffffffffff166342842e0e303384600201546040518463ffffffff1660e01b815260040161081f93929190611355565b600060405180830381600087803b15801561083957600080fd5b505af115801561084d573d6000803e3d6000fd5b505050503373ffffffffffffffffffffffffffffffffffffffff168160040160009054906101000a900473ffffffffffffffffffffffffffffffffffffffff1673ffffffffffffffffffffffffffffffffffffffff168260010160009054906101000a900473ffffffffffffffffffffffffffffffffffffffff1673ffffffffffffffffffffffffffffffffffffffff167f2acb7d5ebd2f8787d726dd1ee0516bf2b4831d194d339cdc0328cbed8117ffbd86856002015486600301546040516109199392919061149e565b60405180910390a45050600160008190555050565b60025481565b600061093e610e4b565b600a821115610979576040517f522023c800000000000000000000000000000000000000000000000000000000815260040160405180910390fd5b8160028190559050919050565b60007f0000000000000000000000000000000000000000000000000000000000000000905090565b60035481565b6109bc610e4b565b6109c66000610ec9565b565b6000600354905090565b6000600160009054906101000a900473ffffffffffffffffffffffffffffffffffffffff16905090565b60026000541415610a42576040517f08c379a0000000000000000000000000000000000000000000000000000000008152600401610a39906113e7565b60405180910390fd5b60026000819055506000811415610a85576040517f8834366900000000000000000000000000000000000000000000000000000000815260040160405180910390fd5b60036000815480929190610a98906116b7565b91905055508273ffffffffffffffffffffffffffffffffffffffff166342842e0e3330856040518463ffffffff1660e01b8152600401610ada93929190611355565b600060405180830381600087803b158015610af457600080fd5b505af1158015610b08573d6000803e3d6000fd5b505050506040518060c0016040528060035481526020018473ffffffffffffffffffffffffffffffffffffffff1681526020018381526020018281526020013373ffffffffffffffffffffffffffffffffffffffff168152602001600015158152506004600060035481526020019081526020016000206000820151816000015560208201518160010160006101000a81548173ffffffffffffffffffffffffffffffffffffffff021916908373ffffffffffffffffffffffffffffffffffffffff160217905550604082015181600201556060820151816003015560808201518160040160006101000a81548173ffffffffffffffffffffffffffffffffffffffff021916908373ffffffffffffffffffffffffffffffffffffffff16021790555060a08201518160040160146101000a81548160ff0219169083151502179055509050503373ffffffffffffffffffffffffffffffffffffffff168373ffffffffffffffffffffffffffffffffffffffff167fd3ecf121b4cf4440ea12a176ea875e37e112f9b429a674e4d44bc2efdc1564966003548585604051610cb19392919061149e565b60405180910390a36001600081905550505050565b60046020528060005260406000206000915090508060000154908060010160009054906101000a900473ffffffffffffffffffffffffffffffffffffffff16908060020154908060030154908060040160009054906101000a900473ffffffffffffffffffffffffffffffffffffffff16908060040160149054906101000a900460ff16905086565b6000600254905090565b60008060646002546064610d6d91906114e6565b6004600086815260200190815260200160002060030154610d8e919061156d565b610d98919061153c565b905080915050919050565b7f000000000000000000000000000000000000000000000000000000000000000081565b610dcf610e4b565b600073ffffffffffffffffffffffffffffffffffffffff168173ffffffffffffffffffffffffffffffffffffffff161415610e3f576040517f08c379a0000000000000000000000000000000000000000000000000000000008152600401610e36906113a7565b60405180910390fd5b610e4881610ec9565b50565b610e53610f8f565b73ffffffffffffffffffffffffffffffffffffffff16610e716109d2565b73ffffffffffffffffffffffffffffffffffffffff1614610ec7576040517f08c379a0000000000000000000000000000000000000000000000000000000008152600401610ebe906113c7565b60405180910390fd5b565b6000600160009054906101000a900473ffffffffffffffffffffffffffffffffffffffff16905081600160006101000a81548173ffffffffffffffffffffffffffffffffffffffff021916908373ffffffffffffffffffffffffffffffffffffffff1602179055508173ffffffffffffffffffffffffffffffffffffffff168173ffffffffffffffffffffffffffffffffffffffff167f8be0079c531659141344cd1fd0a4f28419497f9722a3daafe3b4186f6b6457e060405160405180910390a35050565b600033905090565b6040518060c0016040528060008152602001600073ffffffffffffffffffffffffffffffffffffffff1681526020016000815260200160008152602001600073ffffffffffffffffffffffffffffffffffffffff1681526020016000151581525090565b60008135905061100a816117ff565b92915050565b60008083601f84011261102257600080fd5b8235905067ffffffffffffffff81111561103b57600080fd5b60208301915083600182028301111561105357600080fd5b9250929050565b60008135905061106981611816565b92915050565b60008135905061107e8161182d565b92915050565b60006020828403121561109657600080fd5b60006110a484828501610ffb565b91505092915050565b6000806000806000608086880312156110c557600080fd5b60006110d388828901610ffb565b95505060206110e488828901610ffb565b94505060406110f58882890161106f565b935050606086013567ffffffffffffffff81111561111257600080fd5b61111e88828901611010565b92509250509295509295909350565b60008060006060848603121561114257600080fd5b60006111508682870161105a565b93505060206111618682870161106f565b92505060406111728682870161106f565b9150509250925092565b60006020828403121561118e57600080fd5b600061119c8482850161106f565b91505092915050565b6111ae8161160d565b82525050565b6111bd8161160d565b82525050565b6111cc816115fb565b82525050565b6111db8161161f565b82525050565b6111ea8161161f565b82525050565b6111f98161162b565b82525050565b61120881611693565b82525050565b61121781611693565b82525050565b600061122a6026836114d5565b91506112358261175e565b604082019050919050565b600061124d6020836114d5565b9150611258826117ad565b602082019050919050565b6000611270601f836114d5565b915061127b826117d6565b602082019050919050565b60c08201600082015161129c6000850182611301565b5060208201516112af60208501826111ff565b5060408201516112c26040850182611301565b5060608201516112d56060850182611301565b5060808201516112e860808501826111a5565b5060a08201516112fb60a08501826111d2565b50505050565b61130a81611689565b82525050565b61131981611689565b82525050565b600060208201905061133460008301846111c3565b92915050565b600060208201905061134f60008301846111b4565b92915050565b600060608201905061136a60008301866111c3565b61137760208301856111c3565b6113846040830184611310565b949350505050565b60006020820190506113a160008301846111f0565b92915050565b600060208201905081810360008301526113c08161121d565b9050919050565b600060208201905081810360008301526113e081611240565b9050919050565b6000602082019050818103600083015261140081611263565b9050919050565b600060c08201905061141c6000830184611286565b92915050565b60006020820190506114376000830184611310565b92915050565b600060c0820190506114526000830189611310565b61145f602083018861120e565b61146c6040830187611310565b6114796060830186611310565b61148660808301856111b4565b61149360a08301846111e1565b979650505050505050565b60006060820190506114b36000830186611310565b6114c06020830185611310565b6114cd6040830184611310565b949350505050565b600082825260208201905092915050565b60006114f182611689565b91506114fc83611689565b9250827fffffffffffffffffffffffffffffffffffffffffffffffffffffffffffffffff0382111561153157611530611700565b5b828201905092915050565b600061154782611689565b915061155283611689565b9250826115625761156161172f565b5b828204905092915050565b600061157882611689565b915061158383611689565b9250817fffffffffffffffffffffffffffffffffffffffffffffffffffffffffffffffff04831182151516156115bc576115bb611700565b5b828202905092915050565b60006115d282611689565b91506115dd83611689565b9250828210156115f0576115ef611700565b5b828203905092915050565b600061160682611669565b9050919050565b600061161882611669565b9050919050565b60008115159050919050565b60007fffffffff0000000000000000000000000000000000000000000000000000000082169050919050565b6000611662826115fb565b9050919050565b600073ffffffffffffffffffffffffffffffffffffffff82169050919050565b6000819050919050565b600061169e826116a5565b9050919050565b60006116b082611669565b9050919050565b60006116c282611689565b91507fffffffffffffffffffffffffffffffffffffffffffffffffffffffffffffffff8214156116f5576116f4611700565b5b600182019050919050565b7f4e487b7100000000000000000000000000000000000000000000000000000000600052601160045260246000fd5b7f4e487b7100000000000000000000000000000000000000000000000000000000600052601260045260246000fd5b7f4f776e61626c653a206e6577206f776e657220697320746865207a65726f206160008201527f6464726573730000000000000000000000000000000000000000000000000000602082015250565b7f4f776e61626c653a2063616c6c6572206973206e6f7420746865206f776e6572600082015250565b7f5265656e7472616e637947756172643a207265656e7472616e742063616c6c00600082015250565b611808816115fb565b811461181357600080fd5b50565b61181f81611657565b811461182a57600080fd5b50565b61183681611689565b811461184157600080fd5b5056fea264697066735822122057050ede71d17a1fbcfaa2c2e18f1dcb86413e70772fecfefec4a0777123f4b164736f6c63430008040033",
    "linkReferences": {},
    "deployedLinkReferences": {}
}