{
  "_format": "hh-sol-artifact-1",
  "contractName": "Marketplace",
  "sourceName": "src/backend/contracts/Marketplace.sol",
  "abi": [
    {
      "inputs": [
        {
          "internalType": "uint256",
          "name": "_feePercent",
          "type": "uint256"
        }
      ],
      "stateMutability": "nonpayable",
      "type": "constructor"
    },
    {
      "inputs": [],
      "name": "Marketplace__FeePercentTooHigh",
      "type": "error"
    },
    {
      "inputs": [],
      "name": "Marketplace__ItemAlreadySold",
      "type": "error"
    },
    {
      "inputs": [],
      "name": "Marketplace__NotEnoughEth",
      "type": "error"
    },
    {
      "inputs": [],
      "name": "Marketplace__PriceMustBeMoreThanZero",
      "type": "error"
    },
    {
      "inputs": [],
      "name": "Marketplace__TokenDoesNotExist",
      "type": "error"
    },
    {
      "anonymous": false,
      "inputs": [
        {
          "indexed": false,
          "internalType": "uint256",
          "name": "itemId",
          "type": "uint256"
        },
        {
          "indexed": true,
          "internalType": "contract IERC721",
          "name": "nft",
          "type": "address"
        },
        {
          "indexed": false,
          "internalType": "uint256",
          "name": "tokenId",
          "type": "uint256"
        },
        {
          "indexed": false,
          "internalType": "uint256",
          "name": "price",
          "type": "uint256"
        },
        {
          "indexed": true,
          "internalType": "address",
          "name": "seller",
          "type": "address"
        }
      ],
      "name": "Listing",
      "type": "event"
    },
    {
      "anonymous": false,
      "inputs": [
        {
          "indexed": true,
          "internalType": "address",
          "name": "previousOwner",
          "type": "address"
        },
        {
          "indexed": true,
          "internalType": "address",
          "name": "newOwner",
          "type": "address"
        }
      ],
      "name": "OwnershipTransferred",
      "type": "event"
    },
    {
      "anonymous": false,
      "inputs": [
        {
          "indexed": false,
          "internalType": "uint256",
          "name": "itemId",
          "type": "uint256"
        },
        {
          "indexed": true,
          "internalType": "contract IERC721",
          "name": "nft",
          "type": "address"
        },
        {
          "indexed": false,
          "internalType": "uint256",
          "name": "tokenId",
          "type": "uint256"
        },
        {
          "indexed": false,
          "internalType": "uint256",
          "name": "price",
          "type": "uint256"
        },
        {
          "indexed": true,
          "internalType": "address",
          "name": "seller",
          "type": "address"
        },
        {
          "indexed": true,
          "internalType": "address",
          "name": "buyer",
          "type": "address"
        }
      ],
      "name": "Purchased",
      "type": "event"
    },
    {
      "inputs": [
        {
          "internalType": "uint256",
          "name": "_newFee",
          "type": "uint256"
        }
      ],
      "name": "feeChange",
      "outputs": [
        {
          "internalType": "uint256",
          "name": "",
          "type": "uint256"
        }
      ],
      "stateMutability": "nonpayable",
      "type": "function"
    },
    {
      "inputs": [],
      "name": "getFeeAccount",
      "outputs": [
        {
          "internalType": "address",
          "name": "",
          "type": "address"
        }
      ],
      "stateMutability": "view",
      "type": "function"
    },
    {
      "inputs": [],
      "name": "getFeeAccountBalance",
      "outputs": [
        {
          "internalType": "uint256",
          "name": "",
          "type": "uint256"
        }
      ],
      "stateMutability": "view",
      "type": "function"
    },
    {
      "inputs": [],
      "name": "getFeePercent",
      "outputs": [
        {
          "internalType": "uint256",
          "name": "",
          "type": "uint256"
        }
      ],
      "stateMutability": "view",
      "type": "function"
    },
    {
      "inputs": [
        {
          "internalType": "uint256",
          "name": "_itemId",
          "type": "uint256"
        }
      ],
      "name": "getItemsMap",
      "outputs": [
        {
          "components": [
            {
              "internalType": "uint256",
              "name": "itemId",
              "type": "uint256"
            },
            {
              "internalType": "contract IERC721",
              "name": "nft",
              "type": "address"
            },
            {
              "internalType": "uint256",
              "name": "tokenId",
              "type": "uint256"
            },
            {
              "internalType": "uint256",
              "name": "price",
              "type": "uint256"
            },
            {
              "internalType": "address payable",
              "name": "seller",
              "type": "address"
            },
            {
              "internalType": "bool",
              "name": "sold",
              "type": "bool"
            }
          ],
          "internalType": "struct Marketplace.Item",
          "name": "",
          "type": "tuple"
        }
      ],
      "stateMutability": "view",
      "type": "function"
    },
    {
      "inputs": [
        {
          "internalType": "uint256",
          "name": "_itemId",
          "type": "uint256"
        }
      ],
      "name": "getTotalPrice",
      "outputs": [
        {
          "internalType": "uint256",
          "name": "",
          "type": "uint256"
        }
      ],
      "stateMutability": "view",
      "type": "function"
    },
    {
      "inputs": [],
      "name": "i_feeAccount",
      "outputs": [
        {
          "internalType": "address payable",
          "name": "",
          "type": "address"
        }
      ],
      "stateMutability": "view",
      "type": "function"
    },
    {
      "inputs": [
        {
          "internalType": "uint256",
          "name": "",
          "type": "uint256"
        }
      ],
      "name": "itemsMap",
      "outputs": [
        {
          "internalType": "uint256",
          "name": "itemId",
          "type": "uint256"
        },
        {
          "internalType": "contract IERC721",
          "name": "nft",
          "type": "address"
        },
        {
          "internalType": "uint256",
          "name": "tokenId",
          "type": "uint256"
        },
        {
          "internalType": "uint256",
          "name": "price",
          "type": "uint256"
        },
        {
          "internalType": "address payable",
          "name": "seller",
          "type": "address"
        },
        {
          "internalType": "bool",
          "name": "sold",
          "type": "bool"
        }
      ],
      "stateMutability": "view",
      "type": "function"
    },
    {
      "inputs": [
        {
          "internalType": "contract IERC721",
          "name": "_nftContract",
          "type": "address"
        },
        {
          "internalType": "uint256",
          "name": "_tokenId",
          "type": "uint256"
        },
        {
          "internalType": "uint256",
          "name": "_price",
          "type": "uint256"
        }
      ],
      "name": "listNFT",
      "outputs": [],
      "stateMutability": "nonpayable",
      "type": "function"
    },
    {
      "inputs": [
        {
          "internalType": "address",
          "name": "",
          "type": "address"
        },
        {
          "internalType": "address",
          "name": "",
          "type": "address"
        },
        {
          "internalType": "uint256",
          "name": "",
          "type": "uint256"
        },
        {
          "internalType": "bytes",
          "name": "",
          "type": "bytes"
        }
      ],
      "name": "onERC721Received",
      "outputs": [
        {
          "internalType": "bytes4",
          "name": "",
          "type": "bytes4"
        }
      ],
      "stateMutability": "pure",
      "type": "function"
    },
    {
      "inputs": [],
      "name": "owner",
      "outputs": [
        {
          "internalType": "address",
          "name": "",
          "type": "address"
        }
      ],
      "stateMutability": "view",
      "type": "function"
    },
    {
      "inputs": [
        {
          "internalType": "uint256",
          "name": "_itemId",
          "type": "uint256"
        }
      ],
      "name": "purchaseNFT",
      "outputs": [],
      "stateMutability": "payable",
      "type": "function"
    },
    {
      "inputs": [],
      "name": "renounceOwnership",
      "outputs": [],
      "stateMutability": "nonpayable",
      "type": "function"
    },
    {
      "inputs": [],
      "name": "s_feePercent",
      "outputs": [
        {
          "internalType": "uint256",
          "name": "",
          "type": "uint256"
        }
      ],
      "stateMutability": "view",
      "type": "function"
    },
    {
      "inputs": [],
      "name": "s_itemCount",
      "outputs": [
        {
          "internalType": "uint256",
          "name": "",
          "type": "uint256"
        }
      ],
      "stateMutability": "view",
      "type": "function"
    },
    {
      "inputs": [
        {
          "internalType": "address",
          "name": "newOwner",
          "type": "address"
        }
      ],
      "name": "transferOwnership",
      "outputs": [],
      "stateMutability": "nonpayable",
      "type": "function"
    }
  ],
  "bytecode": "0x60a06040523480156200001157600080fd5b5060405162001a8338038062001a838339818101604052810190620000379190620001c5565b60016000819055506200005f62000053620000e060201b60201c565b620000e860201b60201c565b600a8111156200009b576040517f522023c800000000000000000000000000000000000000000000000000000000815260040160405180910390fd5b3373ffffffffffffffffffffffffffffffffffffffff1660808173ffffffffffffffffffffffffffffffffffffffff1660601b81525050806002819055505062000215565b600033905090565b6000600160009054906101000a900473ffffffffffffffffffffffffffffffffffffffff16905081600160006101000a81548173ffffffffffffffffffffffffffffffffffffffff021916908373ffffffffffffffffffffffffffffffffffffffff1602179055508173ffffffffffffffffffffffffffffffffffffffff168173ffffffffffffffffffffffffffffffffffffffff167f8be0079c531659141344cd1fd0a4f28419497f9722a3daafe3b4186f6b6457e060405160405180910390a35050565b600081519050620001bf81620001fb565b92915050565b600060208284031215620001d857600080fd5b6000620001e884828501620001ae565b91505092915050565b6000819050919050565b6200020681620001f1565b81146200021257600080fd5b50565b60805160601c61183a62000249600039600081816104f601528181610684015281816109540152610d65015261183a6000f3fe6080604052600436106100f35760003560e01c8063715018a61161008a578063be74264d11610059578063be74264d14610324578063ca7dd3751461034f578063cb8ea2811461038c578063f2fde38b146103b7576100f3565b8063715018a6146102775780638da5cb5b1461028e578063ad05f1b4146102b9578063bace4b67146102e2576100f3565b806326c7edf9116100c657806326c7edf9146101b9578063456b7980146101e45780634614be9f146102215780634c3fee9a1461024c576100f3565b8063025f7fb4146100f857806302a4efc214610135578063150b7a0214610160578063150bde031461019d575b600080fd5b34801561010457600080fd5b5061011f600480360381019061011a919061113c565b6103e0565b60405161012c91906113c7565b60405180910390f35b34801561014157600080fd5b5061014a6104f2565b60405161015791906113e2565b60405180910390f35b34801561016c57600080fd5b506101876004803603810190610182919061106d565b610531565b604051610194919061134c565b60405180910390f35b6101b760048036038101906101b2919061113c565b610546565b005b3480156101c557600080fd5b506101ce6108f8565b6040516101db91906113e2565b60405180910390f35b3480156101f057600080fd5b5061020b6004803603810190610206919061113c565b6108fe565b60405161021891906113e2565b60405180910390f35b34801561022d57600080fd5b50610236610950565b60405161024391906112df565b60405180910390f35b34801561025857600080fd5b50610261610978565b60405161026e91906113e2565b60405180910390f35b34801561028357600080fd5b5061028c61097e565b005b34801561029a57600080fd5b506102a3610992565b6040516102b091906112df565b60405180910390f35b3480156102c557600080fd5b506102e060048036038101906102db91906110ed565b6109bc565b005b3480156102ee57600080fd5b506103096004803603810190610304919061113c565b610c86565b60405161031b969594939291906113fd565b60405180910390f35b34801561033057600080fd5b50610339610d0f565b60405161034691906113e2565b60405180910390f35b34801561035b57600080fd5b506103766004803603810190610371919061113c565b610d19565b60405161038391906113e2565b60405180910390f35b34801561039857600080fd5b506103a1610d63565b6040516103ae91906112fa565b60405180910390f35b3480156103c357600080fd5b506103de60048036038101906103d99190611044565b610d87565b005b6103e8610f57565b600460008381526020019081526020016000206040518060c0016040529081600082015481526020016001820160009054906101000a900473ffffffffffffffffffffffffffffffffffffffff1673ffffffffffffffffffffffffffffffffffffffff1673ffffffffffffffffffffffffffffffffffffffff16815260200160028201548152602001600382015481526020016004820160009054906101000a900473ffffffffffffffffffffffffffffffffffffffff1673ffffffffffffffffffffffffffffffffffffffff1673ffffffffffffffffffffffffffffffffffffffff1681526020016004820160149054906101000a900460ff1615151515815250509050919050565b60007f000000000000000000000000000000000000000000000000000000000000000073ffffffffffffffffffffffffffffffffffffffff1631905090565b600063150b7a0260e01b905095945050505050565b6002600054141561058c576040517f08c379a0000000000000000000000000000000000000000000000000000000008152600401610583906113a7565b60405180910390fd5b6002600081905550600061059f82610d19565b9050600060046000848152602001908152602001600020905060008314806105c8575060035483115b156105ff576040517f3471545a00000000000000000000000000000000000000000000000000000000815260040160405180910390fd5b81341015610639576040517fa70074e600000000000000000000000000000000000000000000000000000000815260040160405180910390fd5b8060040160149054906101000a900460ff1615610682576040517f859e8b4c00000000000000000000000000000000000000000000000000000000815260040160405180910390fd5b7f000000000000000000000000000000000000000000000000000000000000000073ffffffffffffffffffffffffffffffffffffffff166108fc8260030154846106cc9190611587565b9081150290604051600060405180830381858888f193505050501580156106f7573d6000803e3d6000fd5b508060040160009054906101000a900473ffffffffffffffffffffffffffffffffffffffff1673ffffffffffffffffffffffffffffffffffffffff166108fc82600301549081150290604051600060405180830381858888f19350505050158015610766573d6000803e3d6000fd5b5060018160040160146101000a81548160ff0219169083151502179055508060010160009054906101000a900473ffffffffffffffffffffffffffffffffffffffff1673ffffffffffffffffffffffffffffffffffffffff166342842e0e303384600201546040518463ffffffff1660e01b81526004016107e993929190611315565b600060405180830381600087803b15801561080357600080fd5b505af1158015610817573d6000803e3d6000fd5b505050503373ffffffffffffffffffffffffffffffffffffffff168160040160009054906101000a900473ffffffffffffffffffffffffffffffffffffffff1673ffffffffffffffffffffffffffffffffffffffff168260010160009054906101000a900473ffffffffffffffffffffffffffffffffffffffff1673ffffffffffffffffffffffffffffffffffffffff167f2acb7d5ebd2f8787d726dd1ee0516bf2b4831d194d339cdc0328cbed8117ffbd86856002015486600301546040516108e39392919061145e565b60405180910390a45050600160008190555050565b60025481565b6000610908610e0b565b600a821115610943576040517f522023c800000000000000000000000000000000000000000000000000000000815260040160405180910390fd5b8160028190559050919050565b60007f0000000000000000000000000000000000000000000000000000000000000000905090565b60035481565b610986610e0b565b6109906000610e89565b565b6000600160009054906101000a900473ffffffffffffffffffffffffffffffffffffffff16905090565b60026000541415610a02576040517f08c379a00000000000000000000000000000000000000000000000000000000081526004016109f9906113a7565b60405180910390fd5b60026000819055506000811415610a45576040517f8834366900000000000000000000000000000000000000000000000000000000815260040160405180910390fd5b60036000815480929190610a5890611677565b91905055508273ffffffffffffffffffffffffffffffffffffffff166342842e0e3330856040518463ffffffff1660e01b8152600401610a9a93929190611315565b600060405180830381600087803b158015610ab457600080fd5b505af1158015610ac8573d6000803e3d6000fd5b505050506040518060c0016040528060035481526020018473ffffffffffffffffffffffffffffffffffffffff1681526020018381526020018281526020013373ffffffffffffffffffffffffffffffffffffffff168152602001600015158152506004600060035481526020019081526020016000206000820151816000015560208201518160010160006101000a81548173ffffffffffffffffffffffffffffffffffffffff021916908373ffffffffffffffffffffffffffffffffffffffff160217905550604082015181600201556060820151816003015560808201518160040160006101000a81548173ffffffffffffffffffffffffffffffffffffffff021916908373ffffffffffffffffffffffffffffffffffffffff16021790555060a08201518160040160146101000a81548160ff0219169083151502179055509050503373ffffffffffffffffffffffffffffffffffffffff168373ffffffffffffffffffffffffffffffffffffffff167fd3ecf121b4cf4440ea12a176ea875e37e112f9b429a674e4d44bc2efdc1564966003548585604051610c719392919061145e565b60405180910390a36001600081905550505050565b60046020528060005260406000206000915090508060000154908060010160009054906101000a900473ffffffffffffffffffffffffffffffffffffffff16908060020154908060030154908060040160009054906101000a900473ffffffffffffffffffffffffffffffffffffffff16908060040160149054906101000a900460ff16905086565b6000600254905090565b60008060646002546064610d2d91906114a6565b6004600086815260200190815260200160002060030154610d4e919061152d565b610d5891906114fc565b905080915050919050565b7f000000000000000000000000000000000000000000000000000000000000000081565b610d8f610e0b565b600073ffffffffffffffffffffffffffffffffffffffff168173ffffffffffffffffffffffffffffffffffffffff161415610dff576040517f08c379a0000000000000000000000000000000000000000000000000000000008152600401610df690611367565b60405180910390fd5b610e0881610e89565b50565b610e13610f4f565b73ffffffffffffffffffffffffffffffffffffffff16610e31610992565b73ffffffffffffffffffffffffffffffffffffffff1614610e87576040517f08c379a0000000000000000000000000000000000000000000000000000000008152600401610e7e90611387565b60405180910390fd5b565b6000600160009054906101000a900473ffffffffffffffffffffffffffffffffffffffff16905081600160006101000a81548173ffffffffffffffffffffffffffffffffffffffff021916908373ffffffffffffffffffffffffffffffffffffffff1602179055508173ffffffffffffffffffffffffffffffffffffffff168173ffffffffffffffffffffffffffffffffffffffff167f8be0079c531659141344cd1fd0a4f28419497f9722a3daafe3b4186f6b6457e060405160405180910390a35050565b600033905090565b6040518060c0016040528060008152602001600073ffffffffffffffffffffffffffffffffffffffff1681526020016000815260200160008152602001600073ffffffffffffffffffffffffffffffffffffffff1681526020016000151581525090565b600081359050610fca816117bf565b92915050565b60008083601f840112610fe257600080fd5b8235905067ffffffffffffffff811115610ffb57600080fd5b60208301915083600182028301111561101357600080fd5b9250929050565b600081359050611029816117d6565b92915050565b60008135905061103e816117ed565b92915050565b60006020828403121561105657600080fd5b600061106484828501610fbb565b91505092915050565b60008060008060006080868803121561108557600080fd5b600061109388828901610fbb565b95505060206110a488828901610fbb565b94505060406110b58882890161102f565b935050606086013567ffffffffffffffff8111156110d257600080fd5b6110de88828901610fd0565b92509250509295509295909350565b60008060006060848603121561110257600080fd5b60006111108682870161101a565b93505060206111218682870161102f565b92505060406111328682870161102f565b9150509250925092565b60006020828403121561114e57600080fd5b600061115c8482850161102f565b91505092915050565b61116e816115cd565b82525050565b61117d816115cd565b82525050565b61118c816115bb565b82525050565b61119b816115df565b82525050565b6111aa816115df565b82525050565b6111b9816115eb565b82525050565b6111c881611653565b82525050565b6111d781611653565b82525050565b60006111ea602683611495565b91506111f58261171e565b604082019050919050565b600061120d602083611495565b91506112188261176d565b602082019050919050565b6000611230601f83611495565b915061123b82611796565b602082019050919050565b60c08201600082015161125c60008501826112c1565b50602082015161126f60208501826111bf565b50604082015161128260408501826112c1565b50606082015161129560608501826112c1565b5060808201516112a86080850182611165565b5060a08201516112bb60a0850182611192565b50505050565b6112ca81611649565b82525050565b6112d981611649565b82525050565b60006020820190506112f46000830184611183565b92915050565b600060208201905061130f6000830184611174565b92915050565b600060608201905061132a6000830186611183565b6113376020830185611183565b61134460408301846112d0565b949350505050565b600060208201905061136160008301846111b0565b92915050565b60006020820190508181036000830152611380816111dd565b9050919050565b600060208201905081810360008301526113a081611200565b9050919050565b600060208201905081810360008301526113c081611223565b9050919050565b600060c0820190506113dc6000830184611246565b92915050565b60006020820190506113f760008301846112d0565b92915050565b600060c08201905061141260008301896112d0565b61141f60208301886111ce565b61142c60408301876112d0565b61143960608301866112d0565b6114466080830185611174565b61145360a08301846111a1565b979650505050505050565b600060608201905061147360008301866112d0565b61148060208301856112d0565b61148d60408301846112d0565b949350505050565b600082825260208201905092915050565b60006114b182611649565b91506114bc83611649565b9250827fffffffffffffffffffffffffffffffffffffffffffffffffffffffffffffffff038211156114f1576114f06116c0565b5b828201905092915050565b600061150782611649565b915061151283611649565b925082611522576115216116ef565b5b828204905092915050565b600061153882611649565b915061154383611649565b9250817fffffffffffffffffffffffffffffffffffffffffffffffffffffffffffffffff048311821515161561157c5761157b6116c0565b5b828202905092915050565b600061159282611649565b915061159d83611649565b9250828210156115b0576115af6116c0565b5b828203905092915050565b60006115c682611629565b9050919050565b60006115d882611629565b9050919050565b60008115159050919050565b60007fffffffff0000000000000000000000000000000000000000000000000000000082169050919050565b6000611622826115bb565b9050919050565b600073ffffffffffffffffffffffffffffffffffffffff82169050919050565b6000819050919050565b600061165e82611665565b9050919050565b600061167082611629565b9050919050565b600061168282611649565b91507fffffffffffffffffffffffffffffffffffffffffffffffffffffffffffffffff8214156116b5576116b46116c0565b5b600182019050919050565b7f4e487b7100000000000000000000000000000000000000000000000000000000600052601160045260246000fd5b7f4e487b7100000000000000000000000000000000000000000000000000000000600052601260045260246000fd5b7f4f776e61626c653a206e6577206f776e657220697320746865207a65726f206160008201527f6464726573730000000000000000000000000000000000000000000000000000602082015250565b7f4f776e61626c653a2063616c6c6572206973206e6f7420746865206f776e6572600082015250565b7f5265656e7472616e637947756172643a207265656e7472616e742063616c6c00600082015250565b6117c8816115bb565b81146117d357600080fd5b50565b6117df81611617565b81146117ea57600080fd5b50565b6117f681611649565b811461180157600080fd5b5056fea2646970667358221220478a5a5b1ec58298cccd2c855c33985688d817a8fa561b32e881c4bd3441e4b864736f6c63430008040033",
  "linkReferences": {},
  "deployedLinkReferences": {}
}