{
  "_format": "hh-sol-artifact-1",
  "contractName": "NFT",
  "sourceName": "src/backend/contracts/NFT.sol",
  "abi": [
    {
      "inputs": [],
      "stateMutability": "nonpayable",
      "type": "constructor"
    },
    {
      "anonymous": false,
      "inputs": [
        {
          "indexed": true,
          "internalType": "address",
          "name": "owner",
          "type": "address"
        },
        {
          "indexed": true,
          "internalType": "address",
          "name": "approved",
          "type": "address"
        },
        {
          "indexed": true,
          "internalType": "uint256",
          "name": "tokenId",
          "type": "uint256"
        }
      ],
      "name": "Approval",
      "type": "event"
    },
    {
      "anonymous": false,
      "inputs": [
        {
          "indexed": true,
          "internalType": "address",
          "name": "owner",
          "type": "address"
        },
        {
          "indexed": true,
          "internalType": "address",
          "name": "operator",
          "type": "address"
        },
        {
          "indexed": false,
          "internalType": "bool",
          "name": "approved",
          "type": "bool"
        }
      ],
      "name": "ApprovalForAll",
      "type": "event"
    },
    {
      "anonymous": false,
      "inputs": [
        {
          "indexed": true,
          "internalType": "address",
          "name": "from",
          "type": "address"
        },
        {
          "indexed": true,
          "internalType": "address",
          "name": "to",
          "type": "address"
        },
        {
          "indexed": true,
          "internalType": "uint256",
          "name": "tokenId",
          "type": "uint256"
        }
      ],
      "name": "Transfer",
      "type": "event"
    },
    {
      "inputs": [
        {
          "internalType": "address",
          "name": "to",
          "type": "address"
        },
        {
          "internalType": "uint256",
          "name": "tokenId",
          "type": "uint256"
        }
      ],
      "name": "approve",
      "outputs": [],
      "stateMutability": "nonpayable",
      "type": "function"
    },
    {
      "inputs": [
        {
          "internalType": "address",
          "name": "owner",
          "type": "address"
        }
      ],
      "name": "balanceOf",
      "outputs": [
        {
          "internalType": "uint256",
          "name": "",
          "type": "uint256"
        }
      ],
      "stateMutability": "view",
      "type": "function"
    },
    {
      "inputs": [
        {
          "internalType": "uint256",
          "name": "tokenId",
          "type": "uint256"
        }
      ],
      "name": "getApproved",
      "outputs": [
        {
          "internalType": "address",
          "name": "",
          "type": "address"
        }
      ],
      "stateMutability": "view",
      "type": "function"
    },
    {
      "inputs": [],
      "name": "getTokenCount",
      "outputs": [
        {
          "internalType": "uint256",
          "name": "",
          "type": "uint256"
        }
      ],
      "stateMutability": "view",
      "type": "function"
    },
    {
      "inputs": [
        {
          "internalType": "address",
          "name": "owner",
          "type": "address"
        },
        {
          "internalType": "address",
          "name": "operator",
          "type": "address"
        }
      ],
      "name": "isApprovedForAll",
      "outputs": [
        {
          "internalType": "bool",
          "name": "",
          "type": "bool"
        }
      ],
      "stateMutability": "view",
      "type": "function"
    },
    {
      "inputs": [
        {
          "internalType": "string",
          "name": "_tokenURI",
          "type": "string"
        }
      ],
      "name": "mint",
      "outputs": [
        {
          "internalType": "uint256",
          "name": "",
          "type": "uint256"
        }
      ],
      "stateMutability": "nonpayable",
      "type": "function"
    },
    {
      "inputs": [],
      "name": "name",
      "outputs": [
        {
          "internalType": "string",
          "name": "",
          "type": "string"
        }
      ],
      "stateMutability": "view",
      "type": "function"
    },
    {
      "inputs": [
        {
          "internalType": "uint256",
          "name": "tokenId",
          "type": "uint256"
        }
      ],
      "name": "ownerOf",
      "outputs": [
        {
          "internalType": "address",
          "name": "",
          "type": "address"
        }
      ],
      "stateMutability": "view",
      "type": "function"
    },
    {
      "inputs": [
        {
          "internalType": "address",
          "name": "from",
          "type": "address"
        },
        {
          "internalType": "address",
          "name": "to",
          "type": "address"
        },
        {
          "internalType": "uint256",
          "name": "tokenId",
          "type": "uint256"
        }
      ],
      "name": "safeTransferFrom",
      "outputs": [],
      "stateMutability": "nonpayable",
      "type": "function"
    },
    {
      "inputs": [
        {
          "internalType": "address",
          "name": "from",
          "type": "address"
        },
        {
          "internalType": "address",
          "name": "to",
          "type": "address"
        },
        {
          "internalType": "uint256",
          "name": "tokenId",
          "type": "uint256"
        },
        {
          "internalType": "bytes",
          "name": "data",
          "type": "bytes"
        }
      ],
      "name": "safeTransferFrom",
      "outputs": [],
      "stateMutability": "nonpayable",
      "type": "function"
    },
    {
      "inputs": [
        {
          "internalType": "address",
          "name": "operator",
          "type": "address"
        },
        {
          "internalType": "bool",
          "name": "approved",
          "type": "bool"
        }
      ],
      "name": "setApprovalForAll",
      "outputs": [],
      "stateMutability": "nonpayable",
      "type": "function"
    },
    {
      "inputs": [
        {
          "internalType": "bytes4",
          "name": "interfaceId",
          "type": "bytes4"
        }
      ],
      "name": "supportsInterface",
      "outputs": [
        {
          "internalType": "bool",
          "name": "",
          "type": "bool"
        }
      ],
      "stateMutability": "view",
      "type": "function"
    },
    {
      "inputs": [],
      "name": "symbol",
      "outputs": [
        {
          "internalType": "string",
          "name": "",
          "type": "string"
        }
      ],
      "stateMutability": "view",
      "type": "function"
    },
    {
      "inputs": [],
      "name": "tokenCount",
      "outputs": [
        {
          "internalType": "uint256",
          "name": "",
          "type": "uint256"
        }
      ],
      "stateMutability": "view",
      "type": "function"
    },
    {
      "inputs": [
        {
          "internalType": "uint256",
          "name": "tokenId",
          "type": "uint256"
        }
      ],
      "name": "tokenURI",
      "outputs": [
        {
          "internalType": "string",
          "name": "",
          "type": "string"
        }
      ],
      "stateMutability": "view",
      "type": "function"
    },
    {
      "inputs": [
        {
          "internalType": "address",
          "name": "from",
          "type": "address"
        },
        {
          "internalType": "address",
          "name": "to",
          "type": "address"
        },
        {
          "internalType": "uint256",
          "name": "tokenId",
          "type": "uint256"
        }
      ],
      "name": "transferFrom",
      "outputs": [],
      "stateMutability": "nonpayable",
      "type": "function"
    }
  ],
  "bytecode": "0x60806040523480156200001157600080fd5b506040518060400160405280600681526020017f47414c2d585900000000000000000000000000000000000000000000000000008152506040518060400160405280600581526020017f47414c5859000000000000000000000000000000000000000000000000000000815250816000908051906020019062000096929190620000b8565b508060019080519060200190620000af929190620000b8565b505050620001cd565b828054620000c69062000168565b90600052602060002090601f016020900481019282620000ea576000855562000136565b82601f106200010557805160ff191683800117855562000136565b8280016001018555821562000136579182015b828111156200013557825182559160200191906001019062000118565b5b50905062000145919062000149565b5090565b5b80821115620001645760008160009055506001016200014a565b5090565b600060028204905060018216806200018157607f821691505b602082108114156200019857620001976200019e565b5b50919050565b7f4e487b7100000000000000000000000000000000000000000000000000000000600052602260045260246000fd5b61291980620001dd6000396000f3fe608060405234801561001057600080fd5b50600436106101005760003560e01c806378a8956711610097578063b88d4fde11610066578063b88d4fde146102ad578063c87b56dd146102c9578063d85d3d27146102f9578063e985e9c51461032957610100565b806378a895671461023757806395d89b41146102555780639f181b5e14610273578063a22cb4651461029157610100565b806323b872dd116100d357806323b872dd1461019f57806342842e0e146101bb5780636352211e146101d757806370a082311461020757610100565b806301ffc9a71461010557806306fdde0314610135578063081812fc14610153578063095ea7b314610183575b600080fd5b61011f600480360381019061011a9190611bf3565b610359565b60405161012c9190611fae565b60405180910390f35b61013d61043b565b60405161014a9190611fc9565b60405180910390f35b61016d60048036038101906101689190611c86565b6104cd565b60405161017a9190611f47565b60405180910390f35b61019d60048036038101906101989190611bb7565b610513565b005b6101b960048036038101906101b49190611ab1565b61062b565b005b6101d560048036038101906101d09190611ab1565b61068b565b005b6101f160048036038101906101ec9190611c86565b6106ab565b6040516101fe9190611f47565b60405180910390f35b610221600480360381019061021c9190611a4c565b61075d565b60405161022e919061216b565b60405180910390f35b61023f610815565b60405161024c919061216b565b60405180910390f35b61025d61081f565b60405161026a9190611fc9565b60405180910390f35b61027b6108b1565b604051610288919061216b565b60405180910390f35b6102ab60048036038101906102a69190611b7b565b6108b7565b005b6102c760048036038101906102c29190611b00565b6108cd565b005b6102e360048036038101906102de9190611c86565b61092f565b6040516102f09190611fc9565b60405180910390f35b610313600480360381019061030e9190611c45565b610a42565b604051610320919061216b565b60405180910390f35b610343600480360381019061033e9190611a75565b610a7e565b6040516103509190611fae565b60405180910390f35b60007f80ac58cd000000000000000000000000000000000000000000000000000000007bffffffffffffffffffffffffffffffffffffffffffffffffffffffff1916827bffffffffffffffffffffffffffffffffffffffffffffffffffffffff1916148061042457507f5b5e139f000000000000000000000000000000000000000000000000000000007bffffffffffffffffffffffffffffffffffffffffffffffffffffffff1916827bffffffffffffffffffffffffffffffffffffffffffffffffffffffff1916145b80610434575061043382610b12565b5b9050919050565b60606000805461044a906123c1565b80601f0160208091040260200160405190810160405280929190818152602001828054610476906123c1565b80156104c35780601f10610498576101008083540402835291602001916104c3565b820191906000526020600020905b8154815290600101906020018083116104a657829003601f168201915b5050505050905090565b60006104d882610b7c565b6004600083815260200190815260200160002060009054906101000a900473ffffffffffffffffffffffffffffffffffffffff169050919050565b600061051e826106ab565b90508073ffffffffffffffffffffffffffffffffffffffff168373ffffffffffffffffffffffffffffffffffffffff16141561058f576040517f08c379a00000000000000000000000000000000000000000000000000000000081526004016105869061212b565b60405180910390fd5b8073ffffffffffffffffffffffffffffffffffffffff166105ae610bc7565b73ffffffffffffffffffffffffffffffffffffffff1614806105dd57506105dc816105d7610bc7565b610a7e565b5b61061c576040517f08c379a0000000000000000000000000000000000000000000000000000000008152600401610613906120cb565b60405180910390fd5b6106268383610bcf565b505050565b61063c610636610bc7565b82610c88565b61067b576040517f08c379a00000000000000000000000000000000000000000000000000000000081526004016106729061214b565b60405180910390fd5b610686838383610d1d565b505050565b6106a6838383604051806020016040528060008152506108cd565b505050565b6000806002600084815260200190815260200160002060009054906101000a900473ffffffffffffffffffffffffffffffffffffffff169050600073ffffffffffffffffffffffffffffffffffffffff168173ffffffffffffffffffffffffffffffffffffffff161415610754576040517f08c379a000000000000000000000000000000000000000000000000000000000815260040161074b9061210b565b60405180910390fd5b80915050919050565b60008073ffffffffffffffffffffffffffffffffffffffff168273ffffffffffffffffffffffffffffffffffffffff1614156107ce576040517f08c379a00000000000000000000000000000000000000000000000000000000081526004016107c59061208b565b60405180910390fd5b600360008373ffffffffffffffffffffffffffffffffffffffff1673ffffffffffffffffffffffffffffffffffffffff168152602001908152602001600020549050919050565b6000600754905090565b60606001805461082e906123c1565b80601f016020809104026020016040519081016040528092919081815260200182805461085a906123c1565b80156108a75780601f1061087c576101008083540402835291602001916108a7565b820191906000526020600020905b81548152906001019060200180831161088a57829003601f168201915b5050505050905090565b60075481565b6108c96108c2610bc7565b8383610f84565b5050565b6108de6108d8610bc7565b83610c88565b61091d576040517f08c379a00000000000000000000000000000000000000000000000000000000081526004016109149061214b565b60405180910390fd5b610929848484846110f1565b50505050565b606061093a82610b7c565b600060066000848152602001908152602001600020805461095a906123c1565b80601f0160208091040260200160405190810160405280929190818152602001828054610986906123c1565b80156109d35780601f106109a8576101008083540402835291602001916109d3565b820191906000526020600020905b8154815290600101906020018083116109b657829003601f168201915b5050505050905060006109e461114d565b90506000815114156109fa578192505050610a3d565b600082511115610a2f578082604051602001610a17929190611f23565b60405160208183030381529060405292505050610a3d565b610a3884611164565b925050505b919050565b600060076000815480929190610a5790612424565b9190505550610a68336007546111cc565b610a74600754836111ea565b6007549050919050565b6000600560008473ffffffffffffffffffffffffffffffffffffffff1673ffffffffffffffffffffffffffffffffffffffff16815260200190815260200160002060008373ffffffffffffffffffffffffffffffffffffffff1673ffffffffffffffffffffffffffffffffffffffff16815260200190815260200160002060009054906101000a900460ff16905092915050565b60007f01ffc9a7000000000000000000000000000000000000000000000000000000007bffffffffffffffffffffffffffffffffffffffffffffffffffffffff1916827bffffffffffffffffffffffffffffffffffffffffffffffffffffffff1916149050919050565b610b858161125e565b610bc4576040517f08c379a0000000000000000000000000000000000000000000000000000000008152600401610bbb9061210b565b60405180910390fd5b50565b600033905090565b816004600083815260200190815260200160002060006101000a81548173ffffffffffffffffffffffffffffffffffffffff021916908373ffffffffffffffffffffffffffffffffffffffff160217905550808273ffffffffffffffffffffffffffffffffffffffff16610c42836106ab565b73ffffffffffffffffffffffffffffffffffffffff167f8c5be1e5ebec7d5bd14f71427d1e84f3dd0314c0f7b2291e5b200ac8c7c3b92560405160405180910390a45050565b600080610c94836106ab565b90508073ffffffffffffffffffffffffffffffffffffffff168473ffffffffffffffffffffffffffffffffffffffff161480610cd65750610cd58185610a7e565b5b80610d1457508373ffffffffffffffffffffffffffffffffffffffff16610cfc846104cd565b73ffffffffffffffffffffffffffffffffffffffff16145b91505092915050565b8273ffffffffffffffffffffffffffffffffffffffff16610d3d826106ab565b73ffffffffffffffffffffffffffffffffffffffff1614610d93576040517f08c379a0000000000000000000000000000000000000000000000000000000008152600401610d8a9061200b565b60405180910390fd5b600073ffffffffffffffffffffffffffffffffffffffff168273ffffffffffffffffffffffffffffffffffffffff161415610e03576040517f08c379a0000000000000000000000000000000000000000000000000000000008152600401610dfa9061204b565b60405180910390fd5b610e0e8383836112ca565b610e19600082610bcf565b6001600360008573ffffffffffffffffffffffffffffffffffffffff1673ffffffffffffffffffffffffffffffffffffffff1681526020019081526020016000206000828254610e6991906122d7565b925050819055506001600360008473ffffffffffffffffffffffffffffffffffffffff1673ffffffffffffffffffffffffffffffffffffffff1681526020019081526020016000206000828254610ec09190612250565b92505081905550816002600083815260200190815260200160002060006101000a81548173ffffffffffffffffffffffffffffffffffffffff021916908373ffffffffffffffffffffffffffffffffffffffff160217905550808273ffffffffffffffffffffffffffffffffffffffff168473ffffffffffffffffffffffffffffffffffffffff167fddf252ad1be2c89b69c2b068fc378daa952ba7f163c4a11628f55a4df523b3ef60405160405180910390a4610f7f8383836112cf565b505050565b8173ffffffffffffffffffffffffffffffffffffffff168373ffffffffffffffffffffffffffffffffffffffff161415610ff3576040517f08c379a0000000000000000000000000000000000000000000000000000000008152600401610fea9061206b565b60405180910390fd5b80600560008573ffffffffffffffffffffffffffffffffffffffff1673ffffffffffffffffffffffffffffffffffffffff16815260200190815260200160002060008473ffffffffffffffffffffffffffffffffffffffff1673ffffffffffffffffffffffffffffffffffffffff16815260200190815260200160002060006101000a81548160ff0219169083151502179055508173ffffffffffffffffffffffffffffffffffffffff168373ffffffffffffffffffffffffffffffffffffffff167f17307eab39ab6107e8899845ad3d59bd9653f200f220920489ca2b5937696c31836040516110e49190611fae565b60405180910390a3505050565b6110fc848484610d1d565b611108848484846112d4565b611147576040517f08c379a000000000000000000000000000000000000000000000000000000000815260040161113e90611feb565b60405180910390fd5b50505050565b606060405180602001604052806000815250905090565b606061116f82610b7c565b600061117961114d565b9050600081511161119957604051806020016040528060008152506111c4565b806111a38461146b565b6040516020016111b4929190611f23565b6040516020818303038152906040525b915050919050565b6111e6828260405180602001604052806000815250611618565b5050565b6111f38261125e565b611232576040517f08c379a0000000000000000000000000000000000000000000000000000000008152600401611229906120ab565b60405180910390fd5b80600660008481526020019081526020016000209080519060200190611259929190611870565b505050565b60008073ffffffffffffffffffffffffffffffffffffffff166002600084815260200190815260200160002060009054906101000a900473ffffffffffffffffffffffffffffffffffffffff1673ffffffffffffffffffffffffffffffffffffffff1614159050919050565b505050565b505050565b60006112f58473ffffffffffffffffffffffffffffffffffffffff16611673565b1561145e578373ffffffffffffffffffffffffffffffffffffffff1663150b7a0261131e610bc7565b8786866040518563ffffffff1660e01b81526004016113409493929190611f62565b602060405180830381600087803b15801561135a57600080fd5b505af192505050801561138b57506040513d601f19601f820116820180604052508101906113889190611c1c565b60015b61140e573d80600081146113bb576040519150601f19603f3d011682016040523d82523d6000602084013e6113c0565b606091505b50600081511415611406576040517f08c379a00000000000000000000000000000000000000000000000000000000081526004016113fd90611feb565b60405180910390fd5b805181602001fd5b63150b7a0260e01b7bffffffffffffffffffffffffffffffffffffffffffffffffffffffff1916817bffffffffffffffffffffffffffffffffffffffffffffffffffffffff191614915050611463565b600190505b949350505050565b606060008214156114b3576040518060400160405280600181526020017f30000000000000000000000000000000000000000000000000000000000000008152509050611613565b600082905060005b600082146114e55780806114ce90612424565b915050600a826114de91906122a6565b91506114bb565b60008167ffffffffffffffff811115611527577f4e487b7100000000000000000000000000000000000000000000000000000000600052604160045260246000fd5b6040519080825280601f01601f1916602001820160405280156115595781602001600182028036833780820191505090505b5090505b6000851461160c5760018261157291906122d7565b9150600a85611581919061246d565b603061158d9190612250565b60f81b8183815181106115c9577f4e487b7100000000000000000000000000000000000000000000000000000000600052603260045260246000fd5b60200101907effffffffffffffffffffffffffffffffffffffffffffffffffffffffffffff1916908160001a905350600a8561160591906122a6565b945061155d565b8093505050505b919050565b6116228383611696565b61162f60008484846112d4565b61166e576040517f08c379a000000000000000000000000000000000000000000000000000000000815260040161166590611feb565b60405180910390fd5b505050565b6000808273ffffffffffffffffffffffffffffffffffffffff163b119050919050565b600073ffffffffffffffffffffffffffffffffffffffff168273ffffffffffffffffffffffffffffffffffffffff161415611706576040517f08c379a00000000000000000000000000000000000000000000000000000000081526004016116fd906120eb565b60405180910390fd5b61170f8161125e565b1561174f576040517f08c379a00000000000000000000000000000000000000000000000000000000081526004016117469061202b565b60405180910390fd5b61175b600083836112ca565b6001600360008473ffffffffffffffffffffffffffffffffffffffff1673ffffffffffffffffffffffffffffffffffffffff16815260200190815260200160002060008282546117ab9190612250565b92505081905550816002600083815260200190815260200160002060006101000a81548173ffffffffffffffffffffffffffffffffffffffff021916908373ffffffffffffffffffffffffffffffffffffffff160217905550808273ffffffffffffffffffffffffffffffffffffffff16600073ffffffffffffffffffffffffffffffffffffffff167fddf252ad1be2c89b69c2b068fc378daa952ba7f163c4a11628f55a4df523b3ef60405160405180910390a461186c600083836112cf565b5050565b82805461187c906123c1565b90600052602060002090601f01602090048101928261189e57600085556118e5565b82601f106118b757805160ff19168380011785556118e5565b828001600101855582156118e5579182015b828111156118e45782518255916020019190600101906118c9565b5b5090506118f291906118f6565b5090565b5b8082111561190f5760008160009055506001016118f7565b5090565b6000611926611921846121ab565b612186565b90508281526020810184848401111561193e57600080fd5b61194984828561237f565b509392505050565b600061196461195f846121dc565b612186565b90508281526020810184848401111561197c57600080fd5b61198784828561237f565b509392505050565b60008135905061199e81612887565b92915050565b6000813590506119b38161289e565b92915050565b6000813590506119c8816128b5565b92915050565b6000815190506119dd816128b5565b92915050565b600082601f8301126119f457600080fd5b8135611a04848260208601611913565b91505092915050565b600082601f830112611a1e57600080fd5b8135611a2e848260208601611951565b91505092915050565b600081359050611a46816128cc565b92915050565b600060208284031215611a5e57600080fd5b6000611a6c8482850161198f565b91505092915050565b60008060408385031215611a8857600080fd5b6000611a968582860161198f565b9250506020611aa78582860161198f565b9150509250929050565b600080600060608486031215611ac657600080fd5b6000611ad48682870161198f565b9350506020611ae58682870161198f565b9250506040611af686828701611a37565b9150509250925092565b60008060008060808587031215611b1657600080fd5b6000611b248782880161198f565b9450506020611b358782880161198f565b9350506040611b4687828801611a37565b925050606085013567ffffffffffffffff811115611b6357600080fd5b611b6f878288016119e3565b91505092959194509250565b60008060408385031215611b8e57600080fd5b6000611b9c8582860161198f565b9250506020611bad858286016119a4565b9150509250929050565b60008060408385031215611bca57600080fd5b6000611bd88582860161198f565b9250506020611be985828601611a37565b9150509250929050565b600060208284031215611c0557600080fd5b6000611c13848285016119b9565b91505092915050565b600060208284031215611c2e57600080fd5b6000611c3c848285016119ce565b91505092915050565b600060208284031215611c5757600080fd5b600082013567ffffffffffffffff811115611c7157600080fd5b611c7d84828501611a0d565b91505092915050565b600060208284031215611c9857600080fd5b6000611ca684828501611a37565b91505092915050565b611cb88161230b565b82525050565b611cc78161231d565b82525050565b6000611cd88261220d565b611ce28185612223565b9350611cf281856020860161238e565b611cfb8161255a565b840191505092915050565b6000611d1182612218565b611d1b8185612234565b9350611d2b81856020860161238e565b611d348161255a565b840191505092915050565b6000611d4a82612218565b611d548185612245565b9350611d6481856020860161238e565b80840191505092915050565b6000611d7d603283612234565b9150611d888261256b565b604082019050919050565b6000611da0602583612234565b9150611dab826125ba565b604082019050919050565b6000611dc3601c83612234565b9150611dce82612609565b602082019050919050565b6000611de6602483612234565b9150611df182612632565b604082019050919050565b6000611e09601983612234565b9150611e1482612681565b602082019050919050565b6000611e2c602983612234565b9150611e37826126aa565b604082019050919050565b6000611e4f602e83612234565b9150611e5a826126f9565b604082019050919050565b6000611e72603e83612234565b9150611e7d82612748565b604082019050919050565b6000611e95602083612234565b9150611ea082612797565b602082019050919050565b6000611eb8601883612234565b9150611ec3826127c0565b602082019050919050565b6000611edb602183612234565b9150611ee6826127e9565b604082019050919050565b6000611efe602e83612234565b9150611f0982612838565b604082019050919050565b611f1d81612375565b82525050565b6000611f2f8285611d3f565b9150611f3b8284611d3f565b91508190509392505050565b6000602082019050611f5c6000830184611caf565b92915050565b6000608082019050611f776000830187611caf565b611f846020830186611caf565b611f916040830185611f14565b8181036060830152611fa38184611ccd565b905095945050505050565b6000602082019050611fc36000830184611cbe565b92915050565b60006020820190508181036000830152611fe38184611d06565b905092915050565b6000602082019050818103600083015261200481611d70565b9050919050565b6000602082019050818103600083015261202481611d93565b9050919050565b6000602082019050818103600083015261204481611db6565b9050919050565b6000602082019050818103600083015261206481611dd9565b9050919050565b6000602082019050818103600083015261208481611dfc565b9050919050565b600060208201905081810360008301526120a481611e1f565b9050919050565b600060208201905081810360008301526120c481611e42565b9050919050565b600060208201905081810360008301526120e481611e65565b9050919050565b6000602082019050818103600083015261210481611e88565b9050919050565b6000602082019050818103600083015261212481611eab565b9050919050565b6000602082019050818103600083015261214481611ece565b9050919050565b6000602082019050818103600083015261216481611ef1565b9050919050565b60006020820190506121806000830184611f14565b92915050565b60006121906121a1565b905061219c82826123f3565b919050565b6000604051905090565b600067ffffffffffffffff8211156121c6576121c561252b565b5b6121cf8261255a565b9050602081019050919050565b600067ffffffffffffffff8211156121f7576121f661252b565b5b6122008261255a565b9050602081019050919050565b600081519050919050565b600081519050919050565b600082825260208201905092915050565b600082825260208201905092915050565b600081905092915050565b600061225b82612375565b915061226683612375565b9250827fffffffffffffffffffffffffffffffffffffffffffffffffffffffffffffffff0382111561229b5761229a61249e565b5b828201905092915050565b60006122b182612375565b91506122bc83612375565b9250826122cc576122cb6124cd565b5b828204905092915050565b60006122e282612375565b91506122ed83612375565b925082821015612300576122ff61249e565b5b828203905092915050565b600061231682612355565b9050919050565b60008115159050919050565b60007fffffffff0000000000000000000000000000000000000000000000000000000082169050919050565b600073ffffffffffffffffffffffffffffffffffffffff82169050919050565b6000819050919050565b82818337600083830152505050565b60005b838110156123ac578082015181840152602081019050612391565b838111156123bb576000848401525b50505050565b600060028204905060018216806123d957607f821691505b602082108114156123ed576123ec6124fc565b5b50919050565b6123fc8261255a565b810181811067ffffffffffffffff8211171561241b5761241a61252b565b5b80604052505050565b600061242f82612375565b91507fffffffffffffffffffffffffffffffffffffffffffffffffffffffffffffffff8214156124625761246161249e565b5b600182019050919050565b600061247882612375565b915061248383612375565b925082612493576124926124cd565b5b828206905092915050565b7f4e487b7100000000000000000000000000000000000000000000000000000000600052601160045260246000fd5b7f4e487b7100000000000000000000000000000000000000000000000000000000600052601260045260246000fd5b7f4e487b7100000000000000000000000000000000000000000000000000000000600052602260045260246000fd5b7f4e487b7100000000000000000000000000000000000000000000000000000000600052604160045260246000fd5b6000601f19601f8301169050919050565b7f4552433732313a207472616e7366657220746f206e6f6e20455243373231526560008201527f63656976657220696d706c656d656e7465720000000000000000000000000000602082015250565b7f4552433732313a207472616e736665722066726f6d20696e636f72726563742060008201527f6f776e6572000000000000000000000000000000000000000000000000000000602082015250565b7f4552433732313a20746f6b656e20616c7265616479206d696e74656400000000600082015250565b7f4552433732313a207472616e7366657220746f20746865207a65726f2061646460008201527f7265737300000000000000000000000000000000000000000000000000000000602082015250565b7f4552433732313a20617070726f766520746f2063616c6c657200000000000000600082015250565b7f4552433732313a2061646472657373207a65726f206973206e6f74206120766160008201527f6c6964206f776e65720000000000000000000000000000000000000000000000602082015250565b7f45524337323155524953746f726167653a2055524920736574206f66206e6f6e60008201527f6578697374656e7420746f6b656e000000000000000000000000000000000000602082015250565b7f4552433732313a20617070726f76652063616c6c6572206973206e6f7420746f60008201527f6b656e206f776e6572206e6f7220617070726f76656420666f7220616c6c0000602082015250565b7f4552433732313a206d696e7420746f20746865207a65726f2061646472657373600082015250565b7f4552433732313a20696e76616c696420746f6b656e2049440000000000000000600082015250565b7f4552433732313a20617070726f76616c20746f2063757272656e74206f776e6560008201527f7200000000000000000000000000000000000000000000000000000000000000602082015250565b7f4552433732313a2063616c6c6572206973206e6f7420746f6b656e206f776e6560008201527f72206e6f7220617070726f766564000000000000000000000000000000000000602082015250565b6128908161230b565b811461289b57600080fd5b50565b6128a78161231d565b81146128b257600080fd5b50565b6128be81612329565b81146128c957600080fd5b50565b6128d581612375565b81146128e057600080fd5b5056fea2646970667358221220413b2843c8708f257eaa23fd3a09abc5e49ee5b8051a4647bfa0b037c761e65264736f6c63430008040033",
  "linkReferences": {},
  "deployedLinkReferences": {}
}